S00F000053445F524541442E7372656303
S1130000A0280020190100001501000015010000BE
S113001000000000000000000000000000000000DC
S113002000000000000000000000000015010000B6
S11300300000000000000000150100001501000090
S11300401501000015010000150100001501000054
S11300501501000015010000150100001501000044
S11300601501000015010000150100001501000034
S11300701501000015010000150100001501000024
S11300801501000015010000150100001501000014
S11300901501000000000000000000001501000030
S11300A015010000150100001501000015010000F4
S11300B00000000010B5064C2378002B07D1054B37
S11300C0002B02D0044800E000BF0123237010BDC0
S11300D04404002000000000B00A0000084B10B5E2
S11300E0002B03D00749084800E000BF0748036815
S11300F0002B00D110BD064B002BFBD09847F9E72D
S11301000000000048040020B00A0000B00A00000B
S113011000000000FEE70000F8B5234A234B9A4292
S113012009D0224B204A03E01168196004330432D9
S11301301F498B42F8D31F4B02E000221A6004339C
S11301401D4A9342F9D31D4AFF211D4B8B439360F3
S1130150FD3990235B001B4AD1501B4AD3780325F9
S1130160AB4302242343D370D3780C27BB43082624
S11301703343D370154B987B302290432022104395
S11301809873997BB943314399739A7BAA43224369
S11301909A730F4A516880230B4353600D4B984761
S11301A00D4B9847FEE7C046B00A0000000000204F
S11301B044040020440400209C08002000ED00E0DA
S11301C00000000000700041005000410048004160
S11301D0004000415908000021030000014A024B7D
S11301E01A60704740420F000000002010B58022C2
S11301F0D202054B1A60002403E0FF20034B98470A
S11302000134492CF9D910BD18440041D506000029
S1130210F0B5D6464F4680B583B081468A46150070
S11302201E008022D202374B1A603748374FB84736
S11302304B461878364CA04701003648B8474B4621
S1130240587853461B0E1843A04701003148B8475D
S11302504B46987853461B0CDBB21843A047010069
S11302602C48B8474B46D87853461B0ADBB2184390
S1130270A04701002748B8474B461B7952466946B8
S1130280CA71C8791843A04701002248B8474B46B1
S11302905879A04701001F48B847FF20A04702E053
S11302A0FF201B4B9847FE28FAD11748174B984755
S11302B0002419E0184B1B7EDB07FBD5FF22164BED
S11302C09A62154B1B7E9B07FBD5134B1B7E5B076A
S11302D0FBD5114B9B6A6F1C2B70FF2119400D48F5
S11302E00A4B984701343D00B442E3D38022D20242
S11302F00A4B1A600448054B984703B00CBC91465E
S11303009A46F0BD14440041200A0000A5040000F0
S1130310D5060000240A0000000C004218440041E5
S113032070B5254B9847254B9847254B984725484A
S1130330254CA047254B98472548A047254C22002B
S113034006212548254B984761780129F6D1244890
S11303501D4B98471F4C220006211F4808301F4B95
S11303609847617801290BD01A4B1B79012B07D0D0
S1130370184B5B79AA2B03D01A48134B98471AE001
S11303801748114B9847134D134C200010302A0086
S11303900621124EB047200018302A000621B0472B
S11303A06B78002BEFD180239B000A4A00210E4872
S11303B00E4CA047002070BDDD010000C107000005
S11303C055060000280A0000A5040000ED01000005
S11303D0380A000078040020F8090000FD06000037
S11303E04C0A00005C0A0000040000201102000016
S11303F0034B1B7EDB07FBD580B2014B188570478E
S11304000008004210B504000A2803D02000034B62
S1130410984710BD0D20014B9847F7E7F103000002
S1130420024A1368591C1160187070476004002058
S113043010B50300092807D9084A1279002A01D106
S1130440572002E0372000E03020C018C0B2044B2F
S113045098470122014B5A7110BDC0466004002028
S11304602104000010B50D4A93681B041B0C936013
S1130470002204E01B1A09498B600132D2B2074BF7
S11304809B688342F6D2054B5B79002B01D1002A8D
S113049002D01000024B984710BDC04660040020F3
S11304A0310400000FB4F0B5C64600B582B008AB05
S11304B010CB0193B0E002342978302919D00025FB
S11304C00B00303BDBB2092B29D900265B4B1A0009
S11304D00C321A6000225A71632969D021D8252967
S11304E074D0582924D0002900D1A0E0534F0C37F0
S11304F050E0AC1C69780125E2E7B200D2B2B21830
S1130500D3B25B00DBB2CB18DBB2303BDEB2217876
S113051001340B00303BDBB2092BEED9D6E70026C1
S1130520F7E773294DD01CD975291CD07829DDD162
S113053058394B424B41414F3B71019B1A1D01926B
S11305401B68BB60802040013D4B98469847802043
S11305504000C0471020C047387A3A4B98470C37C0
S113056018E06429C2D1019B1A1D01921B68334A09
S11305709360642914D03448314FB847FA2080007E
S1130580B8476420B8470A20B8472C4F387A2D4B17
S113059098470C37294B002219680A701F601DE028
S11305A0002BE8DA5B4293602D20284B9847E2E762
S11305B0019B1A1D01921878244B98471F4F0C3742
S11305C0E8E7019B1A1D01921F68E3E725201F4BF2
S11305D098471A4F0C37DDE7013EF6B2174A136805
S11305E0591C11601B78002B06D0002EF4D103E0B7
S11305F02020174B98474646731EDBB29846002EC0
S113060006D0002DF4D03020F3E7114B98472F008B
S11306107D1C38780028F8D1651C2078002806D085
S1130620252800D147E70A4B98472C00F4E702B08D
S113063004BC9046F0BC08BC04B018476004002019
S113064065040000310400001027000021040000AC
S113065005040000154A116A154B0B401362154A34
S1130660116A08230B431362134A144B5A80134B29
S11306705B78DB09FBD1124A124B116819608021A7
S1130680890259609F21197351680F4A916280222F
S1130690D2020E490A600E490A60196802220A430E
S11306A01A60084BDB699B07FBD4704700080040C5
S11306B0FFFCFFFF0004004015400000000C004058
S11306C0700A0000000C004200440041084400414C
S11306D018440041084B1B7EDB07FBD5064B986290
S11306E0054B1B7E5B07FBD5034B986AC0B2024BDC
S11306F01B7E9B07FBD57047000C0042F0B5C64635
S113070000B50F00037898468022D202274B1A6066
S11307100024FF2606E0451C0078254B9847060078
S113072001342800BC42F6D34346482B22D006D9D4
S11307304346692B2BD0772B33D100242EE0402B5A
S11307402FD1002404E0FF20194B98470600013400
S1130750022CF8D98022D202164B1A60300004BC55
S11307609046F0BDFF20124B984706000134062C3A
S1130770F8D9EFE70024FAE7FF200D4B984706006D
S11307800134012CF8D9FF20094B9847E2E70024F3
S1130790F7E7FF20064B984706000134022CF8D9EE
S11307A0D8E70548054B9847D4E7C04614440041B0
S11307B0D506000018440041780A0000A504000092
S11307C010B51B4B98471B4A116A1B4B0B40136215
S11307D01A4B19688022D2000A431A604B22995C92
S11307E00120014399544A215A5C02435A54153951
S11307F05A5C02200243D2B25A545A5C202002436B
S1130800D2B25A540E4A136A31390B4313620D4A59
S11308100D4B5A800D4B0E4A1A60C02292025A6048
S11308200C4A9A811A6802390A431A6010BDC046FC
S1130830DD01000000080040FFFCFFFF0044004110
S11308400004004014400000000C00400008004276
S11308500400314015FBFFFF70B50D4E0D4D002413
S1130860AD1BAD1005D0A300F35801349847A54241
S1130870F9D100F00BF9084E084D0024AD1BAD1062
S113088005D0A300F35801349847A542F9D170BDAF
S1130890980A0000980A0000980A0000A00A0000C4
S11308A0034B10B5002B02D0024800F005F810BD30
S11308B000000000C908000010B501000023002258
S11308C0002000F01FF810BD70B5094B094CE41A64
S11308D0A41009D0084AA518AD00ED182B68013CF6
S11308E09847043D002CF9D100F0DAF870BDC046F9
S11308F0AC0A0000B00A0000FFFFFF3F7047C0468B
S11309007047C046F0B54E464546DE465746E0B50C
S1130910364D83B00600286898460F009146FFF7CD
S1130920EDFF334B1C68A4235B00E058002852D031
S113093043681F2B13DC5A1C0192002E28D1019A04
S113094002339B0042601F502868FFF7D9FF002044
S113095003B03CBC90469946A246AB46F0BD254B3D
S1130960002B3DD0C820400000E000BF002837D055
S1130970A42200235200A15843600160A0504032D9
S1130980835004328350013301930023002ED6D0C8
S11309909A00924682444A46882154466250C422B0
S11309A05200914681444A468739994012688B46E1
S11309B00A4394464A4661461160842241465200E5
S11309C0A150022EBBD102005C468D32FF32116869
S11309D00C431460B3E720004D30FF30E050A7E72C
S11309E02868FFF78DFF01204042B1E74004002052
S11309F0880A00000000000040000000009500008C
S1130A0048000001AA87000077000000006500008C
S1130A10694000000077000052000000000100005F
S1130A200A0A0000202578000A53544152542043F6
S1130A3059434C45530A00000A454E442043594348
S1130A404C45530A434D4430300A000052784275F5
S1130A50666665723A2025780A0000004572726F56
S1130A60722066726F6D20534420636172640000CB
S1130A700C0030000B0001D20A204572726F722004
S1130A80696E20434D44000018000020F8B5C046AC
S1130A90F8BC08BC9E467047A1080000DD000000B9
S1130AA0F8B5C046F8BC08BC9E467047B5000000C7
S1130AB040420F00510000000001000051000008F6
S1130AC000010000000000000000000004030020FA
S1130AD06C030020D403002000000000000000008C
S1130AE00000000000000000000000000000000002
S1130AF000000000000000000000000000000000F2
S1130B0000000000000000000000000000000000E1
S1130B1000000000000000000000000000000000D1
S1130B2000000000000000000000000000000000C1
S1130B3000000000000000000000000000000000B1
S1130B4000000000000000000000000000000000A1
S1130B500000000000000000000000000000000091
S1130B600000000000000000000000000000000081
S1130B7001000000000000000E33CDAB34126DE61E
S1130B80ECDE05000B000000000000000000000087
S1130B900000000000000000000000000000000051
S1130BA00000000000000000000000000000000041
S1130BB00000000000000000000000000000000031
S1130BC00000000000000000000000000000000021
S1070EF0780800205A
S9030000FC
