:10000000B064002019010000150100001501000076
:1000100000000000000000000000000000000000E0
:1000200000000000000000000000000015010000BA
:10003000000000000000000071080000B50800008A
:100040001501000015010000150100001501000058
:100050001501000015010000150100001501000048
:100060001501000015010000150100001501000038
:100070001501000015010000150100001501000028
:100080001501000015010000150100001501000018
:100090001501000000000000000000001501000034
:1000A00015010000150100001501000015010000F8
:1000B0000000000010B5064C2378002B07D1054B3B
:1000C000002B02D0044800E000BF0123237010BDC4
:1000D0003C0400200000000004210000084B10B583
:1000E000002B03D00749084800E000BF0748036819
:1000F000002B00D110BD064B002BFBD09847F9E731
:100100000000000040040020042100000421000041
:1001100000000000FEE70000F8B5234A234B9A4296
:1001200009D0224B204A03E01168196004330432DD
:100130001F498B42F8D31F4B02E000221A600433A0
:100140001D4A9342F9D31D4AFF211D4B8B439360F7
:10015000FD3990235B001B4AD1501B4AD3780325FD
:10016000AB4302242343D370D3780C27BB43082628
:100170003343D370154B987B302290432022104399
:100180009873997BB943314399739A7BAA4322436D
:100190009A730F4A516880230B4353600D4B984765
:1001A0000D4B9847FEE7C0460421000000000020E8
:1001B0003C0400203C040020AC44002000ED00E0A2
:1001C0000000000000700041005000410048004164
:1001D00000400041591D000039040000014A024B53
:1001E0001A60704740420F00000000200722074BB2
:1001F00008339343064A1360002050600549D160DC
:100200009060596008321A607047C0465804002058
:10021000D8420020783E000070B50400244B984777
:10022000244B1B69002B0ED0002C05D0083463072B
:1002300002D007239C430834631E1F4A934232D8DE
:100240001C490B6807E01D4B98470122194B1A61A6
:10025000EAE7190013005A68944202D91A68002A82
:10026000F7D1144A083293421FD00D6808351A6836
:100270000A605A68121B102A0CD91E1972605C6041
:1002800070680C4900E011000A685468A042FAD86E
:1002900032600E605B680A4A1168CB1A1360094B22
:1002A0009847280070BD0025F9E70025F7E7C0460C
:1002B000D9130000D8420020763E0000ED01000076
:1002C000040000200115000070B5041E16D00500C2
:1002D000083D0B4B984769680A4A00E01A0013680A
:1002E00058688142FAD8083C236015606368064A62
:1002F00011688C4663441360044B984770BDC04638
:10030000D9130000D842002004000020011500008D
:10031000030008334360012252428260C3600361DC
:1003200000230360704700230361704743684B60FC
:100330009A688A609A68516099600861036801331D
:100340000360704730B50C68631C02D002000832AD
:1003500002E0026904E01A0053681D68AC42FAD258
:1003600053684B6099608A6051600861036801338B
:10037000036030BD036942688168916082684168AA
:1003800051605A68904206D0002202611A68013A10
:100390001A601868704782685A60F5E710B582B035
:1003A0000023019306E0019B013301939620400056
:1003B000094B984701990948094B9847094B186818
:1003C0000023642201A9084CA0470028EBD107486C
:1003D000034B9847E7E7C046F515000010200000E2
:1003E0006D050000EC420020E10B00002C20000015
:1003F00000B583B00023019305E00948094B9847F5
:100400006420094B9847094B1868642201A9084BDE
:1004100098470028F1D001990648024B9847EFE72A
:100420005C2000006D050000F5150000EC42002086
:100430005D0E00004C200000F0B583B0124B9847D1
:10044000124A116A124B0B401362124B984700225A
:1004500004210320104B9847104B18608025AD00F5
:10046000002701970126009600232A000C490D4819
:100470000D4CA0470197009600232A000B490C4819
:10048000A0470C4B9847FEE7DD0100000008004044
:10049000FFFCFFFFBD1C0000990B0000EC42002098
:1004A000842000009D03000001130000882000004C
:1004B000F103000071130000034B1B7EDB07FBD52B
:1004C00080B2014B188570470008004210B5040047
:1004D0000A2803D02000034B984710BD0D20014B84
:1004E0009847F7E7B9040000024A1368591C1160E5
:1004F00018707047F042002010B50300092807D992
:10050000084A1279002A01D1572002E0372000E082
:100510003020C018C0B2044B98470122014B5A71D9
:1005200010BDC046F0420020E904000010B50D4A9D
:1005300093681B041B0C9360002204E01B1A0949FA
:100540008B600132D2B2074B9B688342F6D2054BD7
:100550005B79002B01D1002A02D01000024B984792
:1005600010BDC046F0420020F90400000FB4F0B501
:10057000C64600B582B008AB10CB0193B0E00234A0
:100580002978302919D000250B00303BDBB2092B2C
:1005900029D900265B4B1A000C321A6000225A71CE
:1005A000632969D021D8252974D0582924D000295D
:1005B00000D1A0E0534F0C3750E0AC1C6978012506
:1005C000E2E7B200D2B2B218D3B25B00DBB2CB1812
:1005D000DBB2303BDEB2217801340B00303BDBB2C2
:1005E000092BEED9D6E70026F7E773294DD01CD9A1
:1005F00075291CD07829DDD158394B424B41414FE8
:100600003B71019B1A1D01921B68BB608020400159
:100610003D4B9846984780204000C0471020C04777
:10062000387A3A4B98470C3718E06429C2D1019BBD
:100630001A1D01921B68334A9360642914D0344810
:10064000314FB847FA208000B8476420B8470A20E5
:10065000B8472C4F387A2D4B98470C37294B00223E
:1006600019680A701F601DE0002BE8DA5B42936096
:100670002D20284B9847E2E7019B1A1D019218781C
:10068000244B98471F4F0C37E8E7019B1A1D019236
:100690001F68E3E725201F4B98471A4F0C37DDE70B
:1006A000013EF6B2174A1368591C11601B78002BE3
:1006B00006D0002EF4D103E02020174B9847464681
:1006C000731EDBB29846002E06D0002DF4D03020E9
:1006D000F3E7114B98472F007D1C38780028F8D19C
:1006E000651C2078002806D0252800D147E70A4B52
:1006F00098472C00F4E702B004BC9046F0BC08BC5C
:1007000004B01847F04200202D050000F904000055
:1007100010270000E9040000CD04000082B000238F
:100720000193064B1B68013301D072B6FEE772B627
:10073000019B002BFCD002B07047C046080000208F
:100740000B4A13681868203080F30988022080F370
:100750001488BFF36F8F3FBCAE4608BC04BC62B6C2
:100760001847C046C046C046C046C046C046C04600
:10077000E0430020054B00221A6005490A60054944
:10078000054A116007221A607047C04610E000E079
:1007900018E000E0FF76010014E000E010B5031F50
:1007A000802464041C60043B1960043B0249196006
:1007B000143B1A60403810BD1D07000010B50C4BEB
:1007C0001968FF2212040A431A601968FF221206F0
:1007D0000A431A60074B98470022074B1A60074BE1
:1007E0009847074B9847074B9847002010BDC046D5
:1007F00020ED00E075070000080000204107000020
:10080000391600001D07000080225205034B1A60B4
:10081000BFF34F8FBFF36F8F7047C04604ED00E00A
:1008200072B6044A136801331360BFF34F8FBFF3EE
:100830006F8F704708000020064B1B68002B01D10A
:1008400072B6FEE7013B034A1360002B00D162B68B
:100850007047C04608000020EFF3108072B6704762
:1008600080F31088704700000000000000000000C6
:10087000EFF309800E4B1A6820381060F0C0444630
:100880004D4656465F46F0C008B572B600F0D4FE3D
:1008900062B60CBC116808681030F0C8A046A946C2
:1008A000B246BB4680F309882038F0C81847C046D6
:1008B000E043002010B5074B98470400064B9847CB
:1008C000002803D080225205044B1A602000044BFC
:1008D000984710BD59080000F513000004ED00E032
:1008E0006108000010B50400064B9847A26BE36B4B
:1008F0009A4204D00024044B9847200010BD0124E4
:10090000F9E7C046210800003908000010B50400CE
:10091000054B9847A36B002B04D00024034B98474A
:10092000200010BD0124F9E721080000390800006B
:1009300070B504001600856B026C002A0AD10368AA
:10094000002B2ED140681B4B984700236360013574
:10095000A56370BD002E0ED18068174B9847A36821
:10096000226C94466344A360626893421BD323685D
:10097000A3600020EBE7C0680F4B9847236C5B42F5
:10098000E268D218E26021688A4203D26268944623
:100990006344E360022E08D1002D08D0013D002001
:1009A000D5E70020D3E70020D1E70020CFE70020E3
:1009B000CDE7C04651180000A11D000070B582B0FF
:1009C00001900A00846C002C05D0A16BE36B994266
:1009D00003D372B6FEE772B6FEE7A16B8B4203D873
:1009E0000026300002B070BD4523E55C6DB201A960
:1009F00020000A4B984706006B1C0AD1636A002B43
:100A0000EFD020002430064B98470028E9D001267B
:100A1000E7E701356DB24523E554E2E7310900000F
:100A20002117000010B50C00026C002A0BD0C3681F
:100A30009B18C36041688B4201D30368C360C168DF
:100A40002000014B984710BDA11D000070B50500A6
:100A5000214B98474523EC5C64B20AE06B6A002B9B
:100A600018D0280024301D4B984700280FD1013C96
:100A700064B2002C0EDDAB6C002BEFD000212800FF
:100A8000174B98470028F2D0164B9847EFE7154BC5
:100A90009847ECE7FF224523EA54134B98470E4B47
:100AA00098474423EC5C64B201E0013C64B2002C42
:100AB0000BDD2B69002B08D028001030074B98471E
:100AC0000028F2D0074B9847EFE7FF224423EA546F
:100AD000054B984770BDC046210800002117000053
:100AE000BD090000251800003908000070B5040099
:100AF0000D00002823D0184B98472268E36B206C28
:100B000001005943511861600021A163A260013BBB
:100B10004343D318E360FF234422A3540132A35478
:100B2000002D11D12369002B05D0200010300B4B74
:100B30009847002805D10A4B9847012070BD72B62E
:100B4000FEE7084B9847F6E720001030064DA8470F
:100B500020002430A847EEE72108000021170000FC
:100B600039080000090800001103000070B51D00DD
:100B7000049C00290BD02260E06321640121200045
:100B8000044B98475023E5540023A36470BD2460B0
:100B9000F2E7C046ED0A0000F0B583B006000F0092
:100BA0001500002801D172B6FEE7002902D0080026
:100BB000704300E000205430074B9847041E07D0D4
:100BC0000200543200902B0039003000034DA8473A
:100BD000200003B0F0BDC046190200006D0B0000FC
:100BE000F0B585B004000F0001921E00002806D069
:100BF000002906D00125002D0AD172B6FEE772B693
:100C0000FEE7036C002B01D10125F4E70025F2E794
:100C1000022E03D0002D06D172B6FEE7E36B012B46
:100C2000F8D00025F6E7444B9847002803D1019BF4
:100C3000002B00D00025002D01D172B6FEE7002563
:100C400042E03200390020003C4B9847A36C002B57
:100C50000CD0310020003A4B9847002801D0394B86
:100C60009847394B9847012005B0F0BD636A002BC7
:100C700008D020002430354B98470028F1D0314B64
:100C80009847EEE70028ECD02E4B9847E9E72E4B2B
:100C900098470020E8E72C4B984701A902A82C4B65
:100CA0009847002841D120002A4B9847002836D089
:100CB000200010300199284B98472000274B984777
:100CC000274B9847002827D0264B9847A36BE26B09
:100CD0009342B6D3022EB4D0019B002BD7D0002D67
:100CE00003D102A8204B98470135174B98471F4B5B
:100CF00098471C4B98474423E35C5BB2013302D115
:100D000000224423E2544523E35C5BB20133C2D1A9
:100D100000224523E254BEE70A4B9847D4E720005F
:100D20000E4B98470E4B9847CEE720000B4B984749
:100D30000B4B9847002097E731180000310900005D
:100D4000BD09000009080000390800002117000053
:100D5000B5170000E5080000BD1600004D0A0000B0
:100D60000115000021080000A5170000D91300009C
:100D7000F0B583B00400009117001D00002807D0D3
:100D8000009B002B06D00123002B0AD172B6FEE790
:100D900072B6FEE7036C002B01D10133F4E70023A8
:100DA000F2E7022D03D0002B06D172B6FEE7E26B0C
:100DB000012AF8D00023F6E7234B98470190A36B54
:100DC000E26B934201D3022D32D14523E65C76B229
:100DD0002A00009920001D4B9847731C22D1A36C58
:100DE000002B10D029002000194B9847002821D053
:100DF000002F21D001233B6001240198154B984717
:100E0000200003B0F0BD636A002B17D0200024300F
:100E1000114B9847002813D0002F13D001233B60BB
:100E20000124EAE7731C5BB24522A3540124E4E7E2
:100E30000024E2E70124E0E70124DEE70124DCE707
:100E40000124DAE70124D8E759080000310900003D
:100E5000BD0900006108000021170000F0B585B051
:100E600004000E000192002806D0002906D00125BA
:100E7000002D0AD172B6FEE772B6FEE7036C002BB6
:100E800001D10125F4E70025F2E73E4B9847002801
:100E900003D1019B002B00D00025002D01D172B69B
:100EA000FEE700272BE031002000374B9847013D3B
:100EB000A5632369002B07D020001030334B9847DF
:100EC000002801D0324B9847324B9847012005B09B
:100ED000F0BD304B98470020F9E702A82E4B984709
:100EE000013716E000224423E2541DE0002245238E
:100EF000E2541EE02000294B9847294B9847294B84
:100F00009847A56B002DCED1019B002BE1D0002F7F
:100F1000E3D0204B9847244B9847224B98474423D3
:100F2000E35C5BB20133DDD04523E35C5BB20133AC
:100F3000DCD0184B984701A902A81C4B9847002801
:100F400013D120001A4B98470028D3D0200024301A
:100F50000199184B98472000104B9847104B984721
:100F60000028CCD10A4B9847C9E720000B4B984783
:100F70000B4B984720000E4B98470028BFD000200D
:100F8000A5E7C04631180000250A0000211700001F
:100F90000908000039080000A51700004D0A0000EC
:100FA0000115000021080000D9130000B51700004A
:100FB0000D090000BD16000010B50023072B0AD84C
:100FC000DA00054C1259002A01D00133F6E7DB00A4
:100FD0001951E318586010BD4844002070B5040052
:100FE0000D001600114B98474423E35C5BB20133BC
:100FF0000DD04523E35C5BB201330CD00C4B98471A
:10100000A36B002B0BD020000A4B984770BD002229
:101010004423E254EDE700224523E254EEE72000AA
:10102000243032002900044B9847ECE721080000E7
:10103000390800004D0A0000E91600000A4B9B6ABF
:101040001B68002B09D10133002B08D1064B9A6A8B
:10105000D268D2685268DA6270470023F4E701224E
:101060005242014BDA62F7E70843002070B50500F1
:10107000006B024CA0472800A04770BDC9020000C9
:10108000F0B5C64600B582B000900F001500019380
:10109000089C0A9E9200A521306B1F4B98471F4B5E
:1010A000EB189B00326B94466344072293439846A7
:1010B0000023042B09D8F9180878F218343210707C
:1010C0000A78002A01D00133F3E700223823F254D2
:1010D000042C00D90424F46274640025B564301D26
:1010E0000F4FB84730001830B847366105231C1B36
:1010F000B4617662F5644B33F554019A0099404629
:10110000084B98473060099B002B00D01E6002B04E
:1011100004BC9046F0BDC046251E0000FFFFFF3F07
:10112000270300009D070000F0B5C64600B5002467
:1011300008E0A3001B199A00104830308018104BAB
:1011400098470134042CF4D90E4D14239846A84432
:1011500040460B4CA0472F0028373800A047074EC9
:1011600030001430A04728003C30A0473000A04792
:101170004346B3622F6504BC9046F0BD084300208F
:10118000110300008843002010B504001F4B98474E
:101190001F4B5A6D01325A659B6D002B2BD01C4B97
:1011A000DB6D002B07D11A4B9B6DDB6AE26A934221
:1011B00001D8174B9C6516490B6E01330B66E36330
:1011C000E26A4B6E9A4200D94A66211D93009B1831
:1011D0009A001048303080180F4B98470F4B9847B3
:1011E0000B4BDB6D002B05D0094B9B6DDA6AE36A74
:1011F0009A4208D310BD064B9C655B6D012BDAD17A
:10120000074B9847D7E7074B9847F3E721080000BB
:1012100088430020084300202D0300003908000007
:10122000291100000908000070B512E00B4B984727
:101230000B4CA36CDD68281D0A4B9847636D013B7E
:101240006365A36E013BA366074B98472800074BD5
:101250009847034B9B6E002BE8D170BD210800001E
:101260008843002075030000390800006D1000005D
:1012700010B5044B9847044B1B6B012BF9D9034B5A
:101280009847F6E7291200000843002009080000EB
:1012900070B504000D00154BDE6E986D0430144BD4
:1012A0009847631C12D03419104B9B6D5C60A642AA
:1012B00015D8104DA86A0D4B996D04310E4B984707
:1012C000EB6A9C4211D20B4BDC620EE0002DEAD09F
:1012D000064B996D04310748084B984705E0034BCE
:1012E000186D996D0431044B984770BD88430020F8
:1012F0007503000008430020450300002D03000093
:10130000F0B587B00490059114001F009000144BB5
:101310009847061E1ED05420114B9847051E15D025
:101320000663002D18D00023039302950D9B0193B3
:101330000C9B00933B00220005990498094CA047A0
:101340002800094B9847012007B0F0BD3000074B3B
:101350009847E6E70025E4E701204042F4E7C0466D
:10136000190200008110000089110000C90200006C
:1013700010B582B0114B74330193002300934622C1
:101380000F491048104CA047012805D0012806D06D
:10139000431C11D002B010BD0C4B9847F6E772B653
:1013A000012252420A4BDA62044B0232DA65002211
:1013B000DA66084B9847EDE772B6FEE788430020EF
:1013C0008C2000007112000001130000951900002C
:1013D00008430020BD070000024A136F0133136762
:1013E0007047C04688430020014BD86E7047C04606
:1013F00088430020F8B53C4B1B6F002B67D13A4B5C
:10140000DD6E0135DD66002D11D1384B9B6A1B68FE
:10141000002B01D072B6FEE7344A916A324B186D48
:10142000906219659A6F01329A67314B98472F4B3A
:10143000DB6A9D423FD200242B4B9B6DDA6A9300FE
:101440009B189A00294B9B181B6B012B44D9012434
:1014500042E00124254B9B6A1B68002B2DD0002302
:10146000002B2CD1214B9B6ADB68DE6873689D42A0
:101470002AD3371D38001F4B9847B36A002B03D07F
:10148000300018301B4B9847F26A174B5B6E9A423C
:1014900001D9154B5A6693009B189A0013483030B7
:1014A00080183900144B9847F26A0F4B9B6DDB6A2A
:1014B0009A42CED2CEE70024CCE70133D0E7012216
:1014C00052420A4BDA62B7E7084AD362B4E7064AE7
:1014D000D36F0133D3670024084B1B68002B00D067
:1014E00001242000F8BDC0468843002008430020A6
:1014F0003D100000750300002D030000084400208B
:1015000070B5324B1B6F002B01D172B6FEE7304B2A
:1015100098472E4B1A6F013A1A671B6F002B50D158
:101520002A4B5B6D002B04D100242A4B98472000E6
:1015300070BD0024284B5B69002B23D0264B1B6A0F
:10154000DC6820001830254EB047251D2800B04724
:10155000E26A1E4B5B6E9A4201D91C4B5A6693009D
:101560009B189A001C483030801829001C4B984763
:10157000164B9B6DDB6AE26A9A42DBD30122194B60
:101580001A60D7E7002C01D0174B98470F4BDC6F40
:10159000002C0AD1134B1B68002B14D0134B984717
:1015A0000124C2E7013C002C07D0114B98470028CA
:1015B000F8D001220B4B1A60F4E70022034BDA67E4
:1015C000E8E70024B1E70024AFE7C04688430020E5
:1015D00021080000390800000843002075030000BE
:1015E0002D030000084400203D1000000908000001
:1015F000F513000010B5041E0ED00A4B1B6F002B14
:1016000001D072B6FEE7084B984700212000074B37
:101610009847074B984700E00020002801D1054B70
:10162000984710BD88430020D91300009112000094
:10163000011500000908000010B51D4B1B6F002BA1
:1016400010D100221B4B1A60194B5B6E9A00D21806
:101650009100194A5218126B002A09D1002B05D0AB
:10166000013BF3E70122134B1A6010BD72B6FEE78F
:10167000114A9900CC18A0001018446B64684463A8
:101680003032C91888000830121894420AD09A00E3
:10169000D2189100084A5218526BD168044A9165D9
:1016A0005366E2E760688900034A52185063EEE728
:1016B00088430020084400200843002010B50C0097
:1016C000002801D172B6FEE7044B996D1831044B26
:1016D000984701212000034B984710BD8843002004
:1016E000450300009112000070B50C0015000028A1
:1016F0000DD0084B996D1831074B9847002D01D03C
:101700000124644229002000044B984770BD72B642
:10171000FEE7C046884300202D0300009112000020
:1017200070B5C368DC68002C27D025001835280068
:10173000174B9847174B1B6F002B20D1251D2800F6
:10174000134B9847E26A134B5B6E9A4201D9114BD7
:101750005A6693009B189A000F4830308018290071
:101760000E4B9847E26A0B4B9B6DDB6A9A420CD991
:1017700001220B4B1A60012070BD72B6FEE72900F2
:1017800005481430054B9847ECE70020F4E7C046C5
:101790007503000088430020084300202D0300004B
:1017A00008440020024B9A6F0260DB6E4360704772
:1017B00088430020F8B505000C0000281AD0002945
:1017C0001AD0144B9847144BD86E6968421A236894
:1017D0005E1C1AD0104EB66F2F68B74201D08842F7
:1017E00015D29A420AD30023236001240B4B984759
:1017F0002000F8BD72B6FEE772B6FEE79B1A2360C2
:101800002800074B98470024F0E70024EEE7012466
:10181000ECE7C0462108000088430020390800009A
:10182000A51700000122014B1A60704708440020F0
:10183000064BDB6D002B05D0044B1B6F002B03D137
:10184000022070470120FCE70020FAE788430020CF
:1018500070B5041E2CD0194B9B6D984201D072B606
:10186000FEE7836C002B01D172B6FEE7013B836477
:10187000C26A416C8A421DD0002B1DD1051D280073
:101880000F4B9847636CE3620522D21AA2610B4AA0
:10189000526E934201D9094A53669A00D3189A00AE
:1018A0000848303080182900074B9847012070BD48
:1018B0000020FCE70020FAE70020F8E7884300203A
:1018C00075030000084300202D030000064B1A6832
:1018D000136859424B410360002B02D1D36818684A
:1018E00070470020FCE7C0460C44002010B5416062
:1018F000006191420CD8D21A83699A4201D3012027
:1019000010E0011D094B5868094B9847002009E079
:101910009A4201D2994206D2011D044B1868044B29
:101920009847002010BD0120FCE7C0460C44002071
:1019300045030000F8B5104B9847104B9B68002BEF
:1019400002D00F4B9847F8BD0C4C26000C363000E7
:101950000C4FB847250020352800B8472660656041
:1019600000220C210520084B9847A0600028E8D0F1
:101970000649074B9847E4E7210800000C44002083
:101980003908000011030000990B0000CC20000072
:10199000B90F000010B582B00C4B98470C4B9B68F8
:1019A000002B0ED00A4B3433019302230093002303
:1019B000502208490848094CA047002803D172B6B4
:1019C000FEE70020F9E702B010BDC046351900005F
:1019D0000C440020D4200000991C000001130000DA
:1019E00030B585B004001D00002814D0134B986852
:1019F000002821D0019102920394052915DC104B97
:101A00009847022809D00D4B98680023002201A9AD
:101A10000C4CA0470EE072B6FEE7084B9868002316
:101A2000089A01A9074CA04704E000232A0001A955
:101A3000054CA04705B030BD0020FBE70C4400205A
:101A400031180000E10B0000710D000070B582B08C
:101A5000174B1B681A68002A23D0DB681E68DC68F5
:101A6000251D2800134B98472000636A9847E369B7
:101A7000012BEDD1A369F3189E4207D26360246164
:101A80000B4B186829000C4B9847E1E700230093A3
:101A9000320000212000094CA0470028D8D172B69E
:101AA000FEE7034A51681160536002B070BDC04642
:101AB0000C4400207503000045030000E1190000FC
:101AC00070B50500084B98470400084B9B6B984283
:101AD00005D300232B60054B9C63200070BD044B95
:101AE000984701232B60F6E7E91300000C4400201F
:101AF0004D1A000070B582B005000E00114B1B6836
:101B0000DB68DC68201D104B9847E369012B04D08B
:101B1000636A2000984702B070BDA36959192B0071
:101B200032002000094EB0470028F1D00023009376
:101B30002A0000212000064DA8470028E8D172B6EF
:101B4000FEE7C0460C44002075030000ED180000BD
:101B5000E119000070B582B005000C00164B9847E3
:101B600001A8164B98470600019B002B21D1002CA1
:101B700001D1A84213D2002C05D0114B5B681C6820
:101B800063425C41E4B2A91B0D4B986822000D4BE7
:101B900098470D4B9847002808D002B070BD0A4BFB
:101BA000984731002800094B9847F6E7084B9847BB
:101BB000F3E7054B9847F0E7D9130000C11A00007E
:101BC0000C440020DD0F000001150000F51A000094
:101BD0000908000030B587B0274B9868002203A998
:101BE000264B9847002845D0039B002BF4DB059C2F
:101BF0006369002B02D0201D214B984702A8214B7E
:101C00009847039B092BE7D89B001F4AD3589F4650
:101C1000049BA269944663441900049B02002000BF
:101C20001A4DA8470028D7D02000636A9847E36977
:101C3000012BD1D1049BA1698C4663441A00002377
:101C4000009300212000124CA0470028C4D172B696
:101C5000FEE70499A161002906D0411803000200A3
:101C600020000A4CA047B7E772B6FEE72000094BF8
:101C70009847B1E707B030BD0C4400205D0E00006E
:101C800075030000C11A0000A4200000ED18000038
:101C9000E1190000C902000000B583B001A8044B9F
:101CA00098470199034B9847034B9847F6E7C0467E
:101CB000CD180000551B0000D51B00001F4A136AF9
:101CC00004210B4313621E4B832252025A601D4AA9
:101CD0005A801D4B03394A229954063101329954D6
:101CE0002E315A5C0F208243022002435A54585C22
:101CF0000F220240202002435A54144B196802223A
:101D000091431960124A1A60104BDB69002BFBD11A
:101D1000104A0E4B9A810D4BDB69002BFBD1C02280
:101D200092020A4B5A60094BDB69002BFBD1074A30
:101D3000136802210B4313607047C0460004004043
:101D4000000C004014400000004400410008004224
:101D50000400314015FBFFFF70B50D4E0D4D002402
:101D6000AD1BAD1005D0A300F35801349847A54230
:101D7000F9D100F0B5F9084E084D0024AD1BAD10A7
:101D800005D0A300F35801349847A542F9D170BD9E
:101D9000EC200000EC200000EC200000F42000000B
:101DA000F0B505000F2A2FD90B0003439B0734D150
:101DB00016000C000300103E350901352D014519B0
:101DC00027681F6067685F60A7689F60E7681034D6
:101DD000DF6010339D42F3D10F239E4310368519E7
:101DE00089191340032B1AD91E1F0023B40801348C
:101DF000A400CF58EF500433A342FAD10324A643E2
:101E0000331D2240C918ED18002A05D00023CC5CF0
:101E1000EC5401339342FAD1F0BD0500F6E71A0005
:101E2000F2E7C046F0B5830743D0541E002A3FD0E6
:101E3000CEB20200032502E01A00013C38D3531C45
:101E400016702B42F8D1032C2AD9FF220A40150222
:101E500015432A0415430F2C14D927001A00103FEC
:101E60003E09013636019E19156055609560D560B2
:101E700010329642F8D10F2297431037DB191440E5
:101E8000032C0DD91A00271FBE080136B6009E1973
:101E900020C2B242FCD1032297430437DB1914401D
:101EA000002C05D0C9B21C19197001339C42FBD11A
:101EB000F0BD14000300C6E7034B10B5002B02D0A1
:101EC000024800F005F810BD00000000E11E00000F
:101ED00010B5010000230022002000F01FF810BD03
:101EE00070B5094B094CE41AA41009D0084AA5188A
:101EF000AD00ED182B68013C9847043D002CF9D14A
:101F000000F0F8F870BDC046002100000421000078
:101F1000FFFFFF3F7047C0467047C046F0B54E46D2
:101F20004546DE465746E0B5364D83B00600286884
:101F300098460F009146FFF7EDFF334B1C68A42332
:101F40005B00E058002852D043681F2B13DC5A1C5A
:101F50000192002E28D1019A02339B0042601F504B
:101F60002868FFF7D9FF002003B03CBC9046994693
:101F7000A246AB46F0BD254B002B3DD0C82040000B
:101F800000E000BF002837D0A42200235200A1584F
:101F900043600160A05040328350043283500133CB
:101FA00001930023002ED6D09A00924682444A46DE
:101FB000882154466250C4225200914681444A46C8
:101FC0008739994012688B460A4394464A466146CF
:101FD0001160842241465200A150022EBBD1020062
:101FE0005C468D32FF3211680C431460B3E7200069
:101FF0004D30FF30E050A7E72868FFF78DFF012044
:102000004042B1E738040020DC200000000000005E
:102010000A53656E6420256420746F2072656365C1
:1020200069766572207461736B0A00000A46616903
:102030006C656420746F2073656E6420746F207407
:102040006865205175657565200A00000A52656350
:1020500065697665642025640A0000000A466169A6
:102060006C656420746F20726563656976652064B1
:102070006174612066726F6D2074686520517565AA
:1020800075650A00747800007278000049444C4578
:1020900000000000092563092575092575092575C6
:1020A0000D0A0000101C0000101C0000101C000095
:1020B000D81B0000521C00006C1C0000101C00000B
:1020C000101C0000D81B0000521C0000546D7251FF
:1020D00000000000546D7220537663001000002051
:1020E000F8B5C046F8BC08BC9E467047B91E000053
:1020F000DD000000F8B5C046F8BC08BC9E4670473D
:04210000B500000026
:1021040040420F00783E0000AAAAAAAA00000000DC
:1021140000000000FC02002064030020CC03002027
:1021240000000000000000000000000000000000AB
:10213400000000000000000000000000000000009B
:10214400000000000000000000000000000000008B
:10215400000000000000000000000000000000007B
:10216400000000000000000000000000000000006B
:10217400000000000000000000000000000000005B
:10218400000000000000000000000000000000004B
:10219400000000000000000000000000000000003B
:1021A400000000000000000000000000000000002B
:1021B400000000000000000001000000000000001A
:1021C4000E33CDAB34126DE6ECDE05000B000000DF
:1021D40000000000000000000000000000000000FB
:1021E40000000000000000000000000000000000EB
:1021F40000000000000000000000000000000000DB
:1022040000000000000000000000000000000000CA
:0C253400000000000000000088440020AF
:00000001FF
