:1000000090240020190100001501000015010000D6
:1000100000000000000000000000000000000000E0
:1000200000000000000000000000000015010000BA
:100030000000000000000000150100001501000094
:100040001501000015010000150100001501000058
:100050001501000015010000150100001501000048
:100060001501000015010000150100001501000038
:100070001501000015010000150100001501000028
:100080001501000015010000150100001501000018
:100090001501000000000000000000001501000034
:1000A00015010000150100001501000015010000F8
:1000B0000000000010B5064C2378002B07D1054B3B
:1000C000002B02D0044800E000BF0123237010BDC4
:1000D0003404002000000000C8070000084B10B5E1
:1000E000002B03D00749084800E000BF0748036819
:1000F000002B00D110BD064B002BFBD09847F9E731
:100100000000000038040020C8070000C8070000F5
:1001100000000000FEE70000F8B5234A234B9A4296
:1001200009D0224B204A03E01168196004330432DD
:100130001F498B42F8D31F4B02E000221A600433A0
:100140001D4A9342F9D31D4AFF211D4B8B439360F7
:10015000FD3990235B001B4AD1501B4AD3780325FD
:10016000AB4302242343D370D3780C27BB43082628
:100170003343D370154B987B302290432022104399
:100180009873997BB943314399739A7BAA4322436D
:100190009A730F4A516880230B4353600D4B984765
:1001A0000D4B9847FEE7C046C8070000000000203E
:1001B00034040020340400208C04002000ED00E012
:1001C0000000000000700041005000410048004164
:1001D00000400041F5050000ED010000014A024B1E
:1001E0001A60704740420F000000002010B582B036
:1001F0000A4B98470A4B984755226B469A718024C0
:10020000E402084B1C606B469879C0B2064B9847D5
:100210006B46D871054B1C60F1E7C0465D050000D8
:1002200095040000144400411505000018440041E5
:10023000034B1B7EDB07FBD580B2014B1885704753
:100240000008004210B504000A2803D02000034B28
:10025000984710BD0D20014B9847F7E73102000089
:10026000024A1368591C116018707047500400202E
:1002700010B50300092807D9084A1279002A01D1CC
:10028000572002E0372000E03020C018C0B2044BF5
:1002900098470122014B5A7110BDC04650040020FE
:1002A0006102000010B50D4A93681B041B0C93609B
:1002B000002204E01B1A09498B600132D2B2074BBD
:1002C0009B688342F6D2054B5B79002B01D1002A53
:1002D00002D01000024B984710BDC04650040020C9
:1002E000710200000FB4F0B5C64600B582B008AB8D
:1002F00010CB0193B0E002342978302919D00025C1
:100300000B00303BDBB2092B29D900265B4B1A00CE
:100310000C321A6000225A71632969D021D825292C
:1003200074D0582924D0002900D1A0E0534F0C37B5
:1003300050E0AC1C69780125E2E7B200D2B2B218F5
:10034000D3B25B00DBB2CB18DBB2303BDEB221783C
:1003500001340B00303BDBB2092BEED9D6E7002687
:10036000F7E773294DD01CD975291CD07829DDD128
:1003700058394B424B41414F3B71019B1A1D019231
:100380001B68BB60802040013D4B98469847802009
:100390004000C0471020C047387A3A4B98470C3786
:1003A00018E06429C2D1019B1A1D01921B68334ACF
:1003B0009360642914D03448314FB847FA20800044
:1003C000B8476420B8470A20B8472C4F387A2D4BDD
:1003D00098470C37294B002219680A701F601DE0EE
:1003E000002BE8DA5B4293602D20284B9847E2E728
:1003F000019B1A1D01921878244B98471F4F0C3708
:10040000E8E7019B1A1D01921F68E3E725201F4BB7
:1004100098471A4F0C37DDE7013EF6B2174A1368CA
:10042000591C11601B78002B06D0002EF4D103E07C
:100430002020174B98474646731EDBB29846002E85
:1004400006D0002DF4D03020F3E7114B98472F0051
:100450007D1C38780028F8D1651C2078002806D04B
:10046000252800D147E70A4B98472C00F4E702B053
:1004700004BC9046F0BC08BC04B0184750040020EF
:10048000A5020000710200001027000061020000B8
:1004900045020000154A116A154B0B401362154ABC
:1004A000116A08230B431362134A144B5A80134BEF
:1004B0005B78DB09FBD1124A124B1168196080216D
:1004C000890259609F21197351680F4A91628022F5
:1004D000D2020E490A600E490A60196802220A43D4
:1004E0001A60084BDB699B07FBD47047000800408B
:1004F000FFFCFFFF0004004015400000000C00401E
:1005000094070000000C00420044004108440041F0
:100510001844004110B50E4B1B7EDB07FBD50C4A7F
:10052000936A5B0A5B0218439062094B1B7E5B0770
:10053000FBD5074B9C6AE405E40DE4B2044B1B7E3B
:100540009B07FBD521000348034B9847200010BDB3
:10055000000C00429C070000E502000010B51B4B98
:1005600098471B4A116A1B4B0B4013621A4B1968C0
:100570008022D2000A431A604B22995C0120014379
:1005800099544A215A5C02435A5415395A5C022044
:100590000243D2B25A545A5C20200243D2B25A5477
:1005A0000E4A136A31390B4313620D4A0D4B5A80C0
:1005B0000D4B0E4A1A60C02292025A600C4A9A8170
:1005C0001A6802390A431A6010BDC046DD010000F6
:1005D00000080040FFFCFFFF004400410004004011
:1005E00014400000000C00400008004204003140AC
:1005F00015FBFFFF70B50D4E0D4D0024AD1BAD106A
:1006000005D0A300F35801349847A542F9D100F072
:10061000C9F8084E084D0024AD1BAD1005D0A3004D
:10062000F35801349847A542F9D170BDB0070000D6
:10063000B0070000B0070000B8070000034B10B57A
:10064000002B02D0024800F005F810BD00000000A9
:100650006506000010B5010000230022002000F014
:100660001FF810BD70B5094B094CE41AA41009D04D
:10067000084AA518AD00ED182B68013C9847043DC9
:10068000002CF9D100F098F870BDC046C4070000F6
:10069000C8070000FFFFFF3F7047C0467047C046D5
:1006A000F0B54E464546DE465746E0B5364D83B07A
:1006B0000600286898460F009146FFF7EDFF334B80
:1006C0001C68A4235B00E058002852D043681F2B0D
:1006D00013DC5A1C0192002E28D1019A02339B0090
:1006E00042601F502868FFF7D9FF002003B03CBCD0
:1006F00090469946A246AB46F0BD254B002B3DD017
:10070000C820400000E000BF002837D0A42200230A
:100710005200A15843600160A0504032835004321F
:100720008350013301930023002ED6D09A009246C5
:1007300082444A46882154466250C422520091465F
:1007400081444A468739994012688B460A43944649
:100750004A4661461160842241465200A150022E51
:10076000BBD102005C468D32FF3211680C4314602D
:10077000B3E720004D30FF30E050A7E72868FFF7CF
:100780008DFF01204042B1E730040020A0070000A7
:10079000000000000C0030000B0001D22025780082
:1007A00008000020F8B5C046F8BC08BC9E4670475B
:1007B0003D060000DD000000F8B5C046F8BC08BCEE
:0807C0009E467047B5000000E1
:1007C80040420F000000000000000000F40200207A
:1007D8005C030020C40300200000000000000000AB
:1007E8000000000000000000000000000000000001
:1007F80000000000000000000000000000000000F1
:1008080000000000000000000000000000000000E0
:1008180000000000000000000000000000000000D0
:1008280000000000000000000000000000000000C0
:1008380000000000000000000000000000000000B0
:1008480000000000000000000000000000000000A0
:100858000000000000000000000000000000000090
:100868000000000000000000000000000000000080
:1008780001000000000000000E33CDAB34126DE61D
:10088800ECDE05000B000000000000000000000086
:100898000000000000000000000000000000000050
:1008A8000000000000000000000000000000000040
:1008B8000000000000000000000000000000000030
:1008C8000000000000000000000000000000000020
:040BF800680400206D
:00000001FF
