S00F00005254435F434F4D2E73726563EE
S1130000B8240020190100001501000015010000AA
S113001000000000000000000000000000000000DC
S113002000000000000000000000000015010000B6
S11300300000000000000000150100001501000090
S11300401501000015010000150100001501000054
S11300501501000015010000150100001501000044
S11300601501000015010000150100001501000034
S11300701501000015010000150100001501000024
S11300801501000015010000150100001501000014
S11300901501000000000000000000001501000030
S11300A015010000150100001501000015010000F4
S11300B00000000010B5064C2378002B07D1054B37
S11300C0002B02D0044800E000BF0123237010BDC0
S11300D034040020000000007C0A0000084B10B526
S11300E0002B03D00749084800E000BF0748036815
S11300F0002B00D110BD064B002BFBD09847F9E72D
S113010000000000380400207C0A00007C0A000083
S113011000000000FEE70000F8B5234A234B9A4292
S113012009D0224B204A03E01168196004330432D9
S11301301F498B42F8D31F4B02E000221A6004339C
S11301401D4A9342F9D31D4AFF211D4B8B439360F3
S1130150FD3990235B001B4AD1501B4AD3780325F9
S1130160AB4302242343D370D3780C27BB43082624
S11301703343D370154B987B302290432022104395
S11301809873997BB943314399739A7BAA43224369
S11301909A730F4A516880230B4353600D4B984761
S11301A00D4B9847FEE7C0467C0A00000000002083
S11301B03404002034040020B804002000ED00E0E2
S11301C00000000000700041005000410048004160
S11301D0004000415D08000089060000014A024B0E
S11301E01A60704740420F0000000020034B1B7E42
S11301F0DB07FBD580B2014B18857047000800422D
S113020010B504000A2803D02000034B984710BD02
S11302100D20014B9847F7E7ED010000024A1368EF
S1130220591C1160187070475004002010B5030069
S1130230092807D9084A1279002A01D1572002E077
S1130240372000E03020C018C0B2044B9847012288
S1130250014B5A7110BDC046500400201D0200001D
S113026010B50D4A93681B041B0C9360002204E034
S11302701B1A09498B600132D2B2074B9B68834237
S1130280F6D2054B5B79002B01D1002A02D0100075
S1130290024B984710BDC046500400202D020000B8
S11302A00FB4F0B5C64600B582B008AB10CB0193CD
S11302B0B0E002342978302919D000250B00303BF6
S11302C0DBB2092B29D900265B4B1A000C321A60C9
S11302D000225A71632969D021D8252974D058295C
S11302E024D0002900D1A0E0534F0C3750E0AC1CBF
S11302F069780125E2E7B200D2B2B218D3B25B004A
S1130300DBB2CB18DBB2303BDEB2217801340B0018
S1130310303BDBB2092BEED9D6E70026F7E7732989
S11303204DD01CD975291CD07829DDD158394B42C0
S11303304B41414F3B71019B1A1D01921B68BB60ED
S1130340802040013D4B9846984780204000C0479C
S11303501020C047387A3A4B98470C3718E0642984
S1130360C2D1019B1A1D01921B68334A9360642910
S113037014D03448314FB847FA208000B84764207D
S1130380B8470A20B8472C4F387A2D4B98470C377A
S1130390294B002219680A701F601DE0002BE8DA5F
S11303A05B4293602D20284B9847E2E7019B1A1D7E
S11303B001921878244B98471F4F0C37E8E7019BAC
S11303C01A1D01921F68E3E725201F4B98471A4F17
S11303D00C37DDE7013EF6B2174A1368591C116069
S11303E01B78002B06D0002EF4D103E02020174BFD
S11303F098474646731EDBB29846002E06D0002D61
S1130400F4D03020F3E7114B98472F007D1C387847
S11304100028F8D1651C2078002806D0252800D1B2
S113042047E70A4B98472C00F4E702B004BC904617
S1130430F0BC08BC04B0184750040020610200005E
S11304402D020000102700001D0200000102000020
S113045030B54000144C60621348007EC007FBD5E1
S11304602820114C21541049097EC907FBD50020CE
S113047008E0155C28210C4C65540B49097EC9071A
S1130480FBD501309842F4DB074A5168C0239B0234
S11304900B435360538B10210B439BB25383024B8A
S11304A0DB69002BFBD130BD00140042024B1968FC
S11304B002229143196070470014004230B5400095
S11304C01C4C60621B4C247EE407FBD52824194D88
S11304D029551849097EC907FBD5164D6C6816497C
S11304E00C4080214902214369600121084368626C
S11304F01049097E8907FBD5002008E028210D4C0E
S1130500615C11540B49097E8907FBD5013098427F
S1130510F4DB084A5168C0239B020B435360538B9E
S113052010210B439BB25383024BDB69002BFBD19D
S113053030BDC04600140042FFFFFCFF234A116A8D
S1130540234B0B401362234B072256215A5401318B
S11305505A541C395A5C02200243D2B25A545A5C8F
S113056020200243D2B25A541B4A136A1B390B434C
S113057013621A4B1A4A5A8059681A4A0A435A6033
S113058080225200184B5A60174BDB69002BFBD1B9
S11305901549CA68FF339A43DD3B1343CB60124BC2
S11305A0DB69002BFBD1114A0F4B1A600E4BDB6940
S11305B0002BFBD10C4A538B10210B439BB253836A
S11305C0094BDB69002BFBD17047C0460008004093
S11305D0FFFCFFFF0044004100040040000C004009
S11305E01744000004060100001400421600300005
S11305F010B51B4B98471B4A116A1B4B0B401362E7
S11306001A4B19688022D2000A431A604B22995C63
S11306100120014399544A215A5C02435A54153922
S11306205A5C02200243D2B25A545A5C202002433C
S1130630D2B25A540E4A136A31390B4313620D4A2B
S11306400D4B5A800D4B0E4A1A60C02292025A601A
S11306500C4A9A811A6802390A431A6010BDC046CE
S1130660DD01000000080040FFFCFFFF00440041E2
S11306700004004014400000000C00400008004248
S11306800400314015FBFFFFF0B5DE4657464E46E9
S11306904546E0B595B05F4B98475F4B98470CA92A
S11306A000248C775D485E4B98475E4B9A461C70DD
S11306B05D4B1B787022934340221343DBB20F221D
S11306C0934306210B439B4657490B70574E73784F
S11306D040218B4310398B439343042003430A93F3
S11306E07370534803780727BB4303273B430B939B
S11306F003705048814603788B43934305211800C7
S113070008438446494608704B4988460978914312
S113071001200143C9B21023994347463970474F1A
S11307203B780F252B4011352B43DBB29343184301
S11307303870434A14705C4654706B4628241B1965
S11307401C7894706B462C241B191B78D370634659
S1130750137151719071072300216820394CA0470F
S1130760394C0723220000216820384DA8472378FC
S11307705246137063782C4A1370A37873702379EC
S11307804A461370637942461370A3793B7030482C
S1130790234B98474B461A789106890F1207120F7C
S11307A04346187803071B0F9B46C006C00F3C78CE
S11307B02509AC462407240F7678B706BD0FA84652
S11307C03607360F55462F787D066D0FA9463F072D
S11307D03F0F154B1D786B065B0F2D072D0F0895EA
S11307E0079306974B460593049643460393029456
S11307F06346019300905B461648094CA047164B8C
S11308009847002015B03CBC90469946A246AB469A
S1130810F0BDC046F10500003D050000FC090000E4
S1130820A102000074040020780400207C0400204D
S11308308C04002090040020700400208004002018
S1130840840400205104000068040020BD0400005A
S11308500C0A0000340A0000AD04000070B50D4E0F
S11308600D4D0024AD1BAD1005D0A300F358013489
S11308709847A542F9D100F0EFF8084E084D00243E
S1130880AD1BAD1005D0A300F35801349847A54221
S1130890F9D170BD640A0000640A0000640A000013
S11308A06C0A0000034B10B5002B02D0024800F084
S11308B005F810BD00000000CD08000010B50100CF
S11308C000230022002000F01FF810BD70B5094B72
S11308D0094CE41AA41009D0084AA518AD00ED1873
S11308E02B68013C9847043D002CF9D100F0BEF878
S11308F070BDC046780A00007C0A0000FFFFFF3F7D
S11309007047C0467047C046F0B54E464546DE4681
S11309105746E0B5364D83B00600286898460F0068
S11309209146FFF7EDFF334B1C68A4235B00E058AE
S1130930002852D043681F2B13DC5A1C0192002E4E
S113094028D1019A02339B0042601F502868FFF7A8
S1130950D9FF002003B03CBC90469946A246AB4662
S1130960F0BD254B002B3DD0C820400000E000BF67
S1130970002837D0A42200235200A158436001600C
S1130980A05040328350043283500133019300233A
S1130990002ED6D09A00924682444A468821544674
S11309A06250C4225200914681444A468739994094
S11309B012688B460A4394464A4661461160842273
S11309C041465200A150022EBBD102005C468D323A
S11309D0FF3211680C431460B3E720004D30FF3040
S11309E0E050A7E72868FFF78DFF01204042B1E7F8
S11309F030040020540A0000000000000A48656C1E
S1130A006C6F20576F726C64210000000A4461749B
S1130A10652F4D6F6E74682F596561722F486F751D
S1130A2072732F5365636F6E64732F4D696E7574A3
S1130A30657300000A256425642F256425642F2529
S1130A406425642F256425642F256425642F25647B
S1130A502564000008000020F8B5C046F8BC08BCB6
S1130A609E467047A5080000DD000000F8B5C046AA
S10F0A70F8BC08BC9E467047B5000000AE
S1130A7C40420F000000000000000000F4020020BF
S1130A8C5C030020C40300200000000000000000F0
S1130A9C0000000000000000000000000000000046
S1130AAC0000000000000000000000000000000036
S1130ABC0000000000000000000000000000000026
S1130ACC0000000000000000000000000000000016
S1130ADC0000000000000000000000000000000006
S1130AEC00000000000000000000000000000000F6
S1130AFC00000000000000000000000000000000E6
S1130B0C00000000000000000000000000000000D5
S1130B1C00000000000000000000000000000000C5
S1130B2C01000000000000000E33CDAB34126DE662
S1130B3CECDE05000B0000000000000000000000CB
S1130B4C0000000000000000000000000000000095
S1130B5C0000000000000000000000000000000085
S1130B6C0000000000000000000000000000000075
S1130B7C0000000000000000000000000000000065
S1070EAC9404002086
S9030000FC
