S00B00006932632E737265631B
S113000080240020190100001501000015010000E2
S113001000000000000000000000000000000000DC
S113002000000000000000000000000015010000B6
S11300300000000000000000150100001501000090
S11300401501000015010000150100001501000054
S11300501501000015010000150100001501000044
S11300601501000015010000150100001501000034
S11300701501000015010000150100001501000024
S11300801501000015010000150100001501000014
S11300901501000000000000000000001501000030
S11300A015010000150100001501000015010000F4
S11300B00000000010B5064C2378002B07D1054B37
S11300C0002B02D0044800E000BF0123237010BDC0
S11300D0340400200000000044050000084B10B563
S11300E0002B03D00749084800E000BF0748036815
S11300F0002B00D110BD064B002BFBD09847F9E72D
S113010000000000380400204405000044050000FD
S113011000000000FEE70000F8B5234A234B9A4292
S113012009D0224B204A03E01168196004330432D9
S11301301F498B42F8D31F4B02E000221A6004339C
S11301401D4A9342F9D31D4AFF211D4B8B439360F3
S1130150FD3990235B001B4AD1501B4AD3780325F9
S1130160AB4302242343D370D3780C27BB43082624
S11301703343D370154B987B302290432022104395
S11301809873997BB943314399739A7BAA43224369
S11301909A730F4A516880230B4353600D4B984761
S11301A00D4B9847FEE7C0464405000000000020C0
S11301B034040020340400207C04002000ED00E01E
S11301C00000000000700041005000410048004160
S11301D0004000417D030000ED010000014A024B94
S11301E01A60704740420F000000002010B5554BC4
S11301F09847554A116A554B0B401362544B0722DA
S113020056215A5401315A541C395A5C0220024373
S1130210D2B25A545A5C20200243D2B25A544D4AA4
S1130220136A1B390B4313624B4B4C4A5A8059686F
S11302304B4A0A435A60802252004A4B5A60494B47
S1130240DB69002BFBD14749CA68FF339A43DD3B86
S11302501343CB60434BDB69002BFBD1424A414B38
S11302601A60404BDB69002BFBD13E4A538B1021B3
S11302700B439BB253833B4BDB69002BFBD1D02256
S1130280384B5A62374B1B7EDB07FBD50022374BBA
S11302901A600EE0354B1B68354AD15C2823314A7D
S11302A0D154304B1B7EDB07FBD5304A1368013336
S11302B013602E4B1B68032BECD92A4A5168C023C8
S11302C09B020B435360D0235362264B1B7EDB07F8
S11302D0FBD503212823234AD154224B1B7EDB0761
S11302E0FBD520494A68234B1A4080235B02134301
S11302F04B60D1234B621B4B1B7E9B07FBD500221B
S11303001A4B1A600EE0194B1B6828221549895CA8
S1130310194AD154134B1B7E9B07FBD5134A136810
S113032001331360114B1B68022BECD90D4B596838
S1130330C02292020A435A6019680222914319604A
S1130340002010BDDD01000000080040FFFCFFFF9D
S11303500044004100040040000C00401744000029
S1130360040601000014004216003000500400206E
S113037004000020FFFFFCFF5404002070B50D4E64
S11303800D4D0024AD1BAD1005D0A300F35801346E
S11303909847A542F9D100F0C3F8084E084D00244F
S11303A0AD1BAD1005D0A300F35801349847A54206
S11303B0F9D170BD2C0500002C0500002C050000AF
S11303C034050000034B10B5002B02D0024800F0A6
S11303D005F810BD00000000ED03000010B5010099
S11303E000230022002000F01FF810BD70B5094B57
S11303F0094CE41AA41009D0084AA518AD00ED1858
S11304002B68013C9847043D002CF9D100F092F888
S113041070BDC0464005000044050000FFFFFF3FDB
S11304207047C0467047C046F0B54E464546DE4666
S11304305746E0B5364D83B00600286898460F004D
S11304409146FFF7EDFF334B1C68A4235B00E05893
S1130450002852D043681F2B13DC5A1C0192002E33
S113046028D1019A02339B0042601F502868FFF78D
S1130470D9FF002003B03CBC90469946A246AB4647
S1130480F0BD254B002B3DD0C820400000E000BF4C
S1130490002837D0A42200235200A15843600160F1
S11304A0A05040328350043283500133019300231F
S11304B0002ED6D09A00924682444A468821544659
S11304C06250C4225200914681444A468739994079
S11304D012688B460A4394464A4661461160842258
S11304E041465200A150022EBBD102005C468D321F
S11304F0FF3211680C431460B3E720004D30FF3025
S1130500E050A7E72868FFF78DFF01204042B1E7DC
S1130510300400201C05000000000000080000203A
S1130520F8B5C046F8BC08BC9E467047C503000039
S1130530DD000000F8B5C046F8BC08BC9E46704714
S1070540B5000000FE
S113054440420F000303220400000000F4020020D0
S11305545C030020C403002000000000000000002D
S11305640000000000000000000000000000000083
S11305740000000000000000000000000000000073
S11305840000000000000000000000000000000063
S11305940000000000000000000000000000000053
S11305A40000000000000000000000000000000043
S11305B40000000000000000000000000000000033
S11305C40000000000000000000000000000000023
S11305D40000000000000000000000000000000013
S11305E40000000000000000000000000000000003
S11305F401000000000000000E33CDAB34126DE6A0
S1130604ECDE05000B000000000000000000000008
S113061400000000000000000000000000000000D2
S113062400000000000000000000000000000000C2
S113063400000000000000000000000000000000B2
S113064400000000000000000000000000000000A2
S107097458040020FF
S9030000FC
