:1000000078240020190100001501000015010000EE
:1000100000000000000000000000000000000000E0
:1000200000000000000000000000000015010000BA
:100030000000000000000000150100001501000094
:100040001501000015010000150100001501000058
:100050001501000015010000150100001501000048
:100060001501000015010000150100001501000038
:100070001501000015010000150100001501000028
:100080001501000015010000150100001501000018
:100090001501000000000000000000001501000034
:1000A00015010000150100001501000015010000F8
:1000B0000000000010B5064C2378002B07D1054B3B
:1000C000002B02D0044800E000BF0123237010BDC4
:1000D00034040020000000003C040000084B10B570
:1000E000002B03D00749084800E000BF0748036819
:1000F000002B00D110BD064B002BFBD09847F9E731
:1001000000000000380400203C0400003C04000013
:1001100000000000FEE70000F8B5234A234B9A4296
:1001200009D0224B204A03E01168196004330432DD
:100130001F498B42F8D31F4B02E000221A600433A0
:100140001D4A9342F9D31D4AFF211D4B8B439360F7
:10015000FD3990235B001B4AD1501B4AD3780325FD
:10016000AB4302242343D370D3780C27BB43082628
:100170003343D370154B987B302290432022104399
:100180009873997BB943314399739A7BAA4322436D
:100190009A730F4A516880230B4353600D4B984765
:1001A0000D4B9847FEE7C0463C04000000000020CD
:1001B00034040020340400207404002000ED00E02A
:1001C0000000000000700041005000410048004164
:1001D0000040004175020000ED010000014A024BA1
:1001E0001A60704740420F000000002010B51B4B02
:1001F00098471B4B00224E215A548021C901996017
:100200001849086A80231B0103430B62164B9A604E
:1002100083214902596015495980154BE52149420E
:1002200019821A805A7101229A731A8802210A438C
:1002300092B21A800E4BDB7BDBB2802BFAD00C4BD8
:100240009B7B012BFBD08022D201054BDA61084B4E
:1002500001229A73E63A1A82F1E7C046DD010000F6
:100260000044004100040040000C00401B4000001E
:10027000002C004270B50D4E0D4D0024AD1BAD108D
:1002800005D0A300F35801349847A542F9D100F0F6
:10029000C3F8084E084D0024AD1BAD1005D0A300D7
:1002A000F35801349847A542F9D170BD24040000E9
:1002B00024040000240400002C040000034B10B5AB
:1002C000002B02D0024800F005F810BD000000002D
:1002D000E502000010B5010000230022002000F01C
:1002E0001FF810BD70B5094B094CE41AA41009D0D1
:1002F000084AA518AD00ED182B68013C9847043D4D
:10030000002CF9D100F092F870BDC046380400000E
:100310003C040000FFFFFF3F7047C0467047C046E7
:10032000F0B54E464546DE465746E0B5364D83B0FD
:100330000600286898460F009146FFF7EDFF334B03
:100340001C68A4235B00E058002852D043681F2B90
:1003500013DC5A1C0192002E28D1019A02339B0013
:1003600042601F502868FFF7D9FF002003B03CBC53
:1003700090469946A246AB46F0BD254B002B3DD09A
:10038000C820400000E000BF002837D0A42200238E
:100390005200A15843600160A050403283500432A3
:1003A0008350013301930023002ED6D09A00924649
:1003B00082444A46882154466250C42252009146E3
:1003C00081444A468739994012688B460A439446CD
:1003D0004A4661461160842241465200A150022ED5
:1003E000BBD102005C468D32FF3211680C431460B1
:1003F000B3E720004D30FF30E050A7E72868FFF753
:100400008DFF01204042B1E73004002014040000B9
:100410000000000008000020F8B5C046F8BC08BC89
:100420009E467047BD020000DD000000F8B5C046E2
:0C043000F8BC08BC9E467047B5000000F8
:10043C0040420F000000000000000000F402002009
:10044C005C030020C403002000000000000000003A
:10045C000000000000000000000000000000000090
:10046C000000000000000000000000000000000080
:10047C000000000000000000000000000000000070
:10048C000000000000000000000000000000000060
:10049C000000000000000000000000000000000050
:1004AC000000000000000000000000000000000040
:1004BC000000000000000000000000000000000030
:1004CC000000000000000000000000000000000020
:1004DC000000000000000000000000000000000010
:1004EC0001000000000000000E33CDAB34126DE6AD
:1004FC00ECDE05000B000000000000000000000016
:10050C0000000000000000000000000000000000DF
:10051C0000000000000000000000000000000000CF
:10052C0000000000000000000000000000000000BF
:10053C0000000000000000000000000000000000AF
:04086C005004002014
:00000001FF
